:020000040800F2
:10000000200400200101000805030008FD0200088B
:10001000010300084901000817080008000000005B
:10002000000000000000000000000000FD030008C8
:10003000890100080000000007030008E904000827
:100040001B0100081B0100081B0100081B01000820
:100050001B0100081B0100081B0100081B01000810
:100060001B0100081B0100081B0100081B01000800
:100070001B0100081B0100081B0100081B010008F0
:100080001B0100081B0100081B0100081B010008E0
:100090001B0100081B0100081B0100081B010008D0
:1000A0001B0100081B0100081B0100081B010008C0
:1000B0001B0100081B0100081B0100081B010008B0
:1000C0001B0100081B0100081B0100081B010008A0
:1000D0001B0100084D0500081B0100081B0100085A
:1000E0001B0100081B0100081B010008DFF80CD0F1
:1000F00000F018F8004800473908000820040020E4
:100100000648804706480047FEE7FEE7FEE7FEE7B1
:10011000FEE7FEE7FEE7FEE7FEE7FEE7ED04000888
:10012000ED000008064C074D06E0E06840F00103D2
:1001300094E8070098471034AC42F6D3FFF7DAFF93
:10014000D8080008F808000800BFFEE710B5012134
:10015000042000F0D9F801200949088002208870A5
:100160004820C870074800F031F802200449088090
:1001700088704820C870034800F028F810BD0000BF
:100180001400002000080140704701B542F274726B
:10019000009901FB02F000E0401E0028FCD108BDE0
:1001A00008B50848006800900121082000F0ACF86C
:1001B0006946054800F00AF84FF44071024800F023
:1001C00094F808BDD4080008000C01402DE9F04166
:1001D000024600250026002000230024002791F875
:1001E00003C00CF00F0591F803C00CF0100CBCF12B
:1001F000000F03D091F802C04CEA050591F800C049
:10020000BCF1000F31D0146800202BE04FF0010C3E
:100210000CFA00F3B1F800C00CEA03069E4220D1AC
:1002200083004FF00F0C0CFA03F7BC4305FA03FCF4
:100230004CEA040491F803C0BCF1280F06D14FF03A
:10024000010C0CFA00FCC2F814C00AE091F803C0DB
:10025000BCF1480F05D14FF0010C0CFA00FCC2F8BC
:1002600010C0401C0828D1D31460B1F800C0BCF104
:10027000FF0F34DD546800202EE000F1080C4FF031
:10028000010808FA0CF3B1F800C00CEA03069E421C
:1002900021D183004FF00F0C0CFA03F7BC4305FA91
:1002A00003FC4CEA040491F803C0BCF1280F05D10B
:1002B00000F1080C08FA0CF8C2F8148091F803C099
:1002C000BCF1480F07D100F1080C4FF0010808FA03
:1002D0000CF8C2F81080401C0828CED35460BDE84A
:1002E000F0810146886880B27047416170470161C2
:1002F00070470AB1016100E04161704700BFFEE74D
:1003000000BFFEE77047704729B1064A9269024371
:10031000044B9A6104E0034A92698243014B9A615B
:10032000704700000010024030B500210022002478
:1003300000232D4D6D6805F00C0121B1042905D075
:10034000082923D105E0294D056022E0274D0560ED
:100350001FE0254D6D6805F47012234D6D6805F49E
:100360008034022505EB92421CB9214D55430560AE
:100370000BE01D4D6D6805F400351DB11C4D554356
:10038000056002E0194D5543056002E0174D056018
:1003900000BF00BF144D6D6805F0F0010909154D4F
:1003A0006B5C0568DD4045600F4D6D6805F4E061EC
:1003B000090A104D6B5C4568DD4085600A4D6D682B
:1003C00005F46051C90A0B4D6B5C4568DD40C560A2
:1003D000054D6D6805F44041890B074D6B5CC568A0
:1003E000B5FBF3F5056130BD0010024000127A0044
:1003F00000093D000000002010000020704710B5EB
:1004000000F002F810BD00000CB500200190009033
:100410003348006840F480303149086000BF3048FC
:10042000006800F4003000900198401C0190009892
:1004300018B90198B0F5A06FF1D12948006800F40F
:10044000003010B10120009001E0002000900098E1
:10045000012843D12348006840F01000214908607A
:100460000846006820F0030008600846006840F075
:10047000020008601A484068194948600846406808
:1004800048600846406840F480604860084640681C
:1004900020F47C1048600846406840F4E81048604A
:1004A0000846006840F08070086000BF0C48006893
:1004B00000F000700028F9D00948406820F00300DF
:1004C000074948600846406840F00200486000BFA5
:1004D0000348406800F00C000828F9D10CBD00006A
:1004E00000100240002002407047000010B5134881
:1004F000006840F001001149086008464068104952
:1005000008400E494860084600680E4908400B49FB
:1005100008600846006820F48020086008464068AB
:1005200020F4FE0048604FF41F008860FFF767FF6B
:100530004FF000600449086010BD00000010024048
:100540000000FFF8FFFFF6FE08ED00E010B540F2F6
:1005500025511D4800F09EF8A0B31B4800F056F945
:10056000C0B2732802D101201849086017480068FA
:10057000012827D1144800F049F9C0B2612806D0FB
:1005800062280BD063280FD064281AD113E0002210
:100590004FF480710E48FFF7ACFE12E00122110209
:1005A0000B48FFF7A6FE0CE000224FF4007108484C
:1005B000FFF79FFE05E0012251020548FFF799FE73
:1005C00000BF00BF10BD000000380140180000202F
:1005D000000C014000B585B0012144F20500FFF791
:1005E00093FE4FF40070ADF8000003208DF8020078
:1005F00018208DF8030069461E48FFF7E7FD4FF409
:100600008060ADF8000003208DF8020004208DF812
:10061000030069461748FFF7D9FD0121164800F08D
:100620002DF84FF4165001900020ADF80800ADF8F9
:100630000A00ADF80C000C20ADF80E000020ADF85B
:10064000100001A90C4800F075F8012240F2255174
:10065000094800F049F8252000F01F0201219140CF
:100660004209920002F1E022C2F8001100BF05B079
:1006700000BD0000000801400038014021B182891E
:1006800042F40052828104E082894DF6FF731A40E1
:100690008281704770B502460024002300250020A7
:1006A00040F66A16B14200D100BFC1F3421501F015
:1006B0001F03012606FA03F3012D02D19689334068
:1006C00006E0022D02D1168A334001E0968A3340BB
:1006D0000C12012606FA04F41688344013B10CB14A
:1006E000012000E0002070BDF0B503460024002684
:1006F0000025002040F66A17B94200D100BF184615
:10070000C1F3421401F01F06012707FA06F5012C78
:1007100001D10C3004E0022C01D1103000E0143083
:100720001AB107682F43076002E00768AF4307600C
:10073000F0BD00002DE9F04786B005460E460024C6
:10074000A24600BFA1460027B08900B100BF2F46D6
:100750002C8A4CF6FF700440F08804432C82AC894C
:100760004EF6F3100440B08831890843718908437C
:100770000443AC81AC8A4FF6FF400440B089044387
:10078000AC8201A8FFF7D0FD1F48874202D1DDF8F7
:1007900010A001E0DDF80CA0A88900F4004040B1F1
:1007A0000AEBCA0000EB0A1031684900B0FBF1F80F
:1007B00007E00AEBCA0000EB0A1031688900B0FBC1
:1007C000F1F86420B8FBF0F004012009642101FB7A
:1007D0001089A88900F4004040B1322000EBC90024
:1007E000B0FBF1F000F00700044308E0322000EB1A
:1007F00009106421B0FBF1F000F00F0004432C81DC
:1008000006B0BDE8F0870000003801400146888846
:10081000C0F30800704700BFFEE702E008C8121FDF
:1008200008C1002AFAD170477047002001E001C1D9
:10083000121F002AFBD1704741F28830FFF7A5FC58
:10084000FFF784FCFFF7ACFCFFF7C4FE3DE01F4858
:10085000FFF747FD00F00200C0B900BF1B48FFF7DB
:1008600040FD00F002000028F8D01948FFF739FDDC
:1008700000F4807028B94FF480711548FFF737FDF8
:1008800004E04FF480711248FFF72FFD0F48FFF787
:1008900028FD00F00100C0B900BF0C48FFF721FDA2
:1008A00000F001000028F8D00948FFF71AFD00F415
:1008B000007028B94FF400710548FFF718FD04E0F7
:1008C0004FF400710248FFF710FDC0E70008014037
:1008D000000C014000030310F8080008000000208D
:1008E0001C0000001A080008140900081C00002061
:1008F000040400002A0800080000000001020304AC
:1009000001020304060708090204060800000000AB
:0409100000000000E3
:04000005080000ED02
:00000001FF
